HAPSP0001                                                          4234234     08072019                    08072019000000018580016WORKERS SALARY 06/2019                                                                                                                                                             D08072019014451                                                         
D00000001MOHAMMAD ALI                                                    BQ0795664   015001156141609497        000000000121108                                        PB000119010                                                                                                                                                                                                           
D00000002Md Khalekur Rahman                                              BJ0216119   015001156141609727        000000000128656                                        PB000119033                                                                                                                                                                                                           
D00000003Masum                                                           BN0719013   015001156141584938        000000000175366                                        PB000119027                                                                                                                                                                                                           
D00000004Dulal                                                           BW0847378   015001156141585590        000000000144961                                        PB000119020                                                                                                                                                                                                           
D00000005HUSNI                                                           AU255920    015001156141610126        000000000120406                                        PI000119090                                                                                                                                                                                                           
D00000006SABRI                                                           AU226597    015001156141619051        000000000107824                                        PI000119107                                                                                                                                                                                                           
D00000007MUKTAR KUSUMA                                                   AU 091509   015001156141609518        000000000110006                                        PI000119082                                                                                                                                                                                                           
D00000008SAMSUL HAKIM                                                    AT 615272   015001156141584163        000000000121108                                        PI000119042                                                                                                                                                                                                           
D00000009YUSUP                                                           AT 200643   015001156141584080        000000000263939                                        PI000119026                                                                                                                                                                                                           
D00000010RAMLI                                                           AT 758644   015001156141583436        000000000160835                                        PI000119018                                                                                                                                                                                                           
D00000011PRASTIA MUKTI                                                   AU069854    015001156141585315        000000000194398                                        PI000119013                                                                                                                                                                                                           
D00000012Kabir Hossain                                                   BL0453829   015001156141609123        000000000143458                                        PB000119026                                                                                                                                                                                                           
D00000013SUKRI                                                           B9559021    015001156141586630        000000000163922                                        PI000119071                                                                                                                                                                                                           
D00000014SULHIANA                                                        AT 996959   015001156141584299        000000000202488                                        PI000119053                                                                                                                                                                                                           
D00000015Azzijul Islam                                                   BM0231484   015001156141609845        000000000131083                                        PB000119017                                                                                                                                                                                                           
D00000016Md Mozammal Hossain                                             BR0197719   015001156141608550        000000000144786                                        PB000119034                                                                                                                                                                                                           
D00000017REMADIM                                                         B 5294995   015001156141584661        000000000144194                                        PI000119012                                                                                                                                                                                                           
D00000018SARUDIN                                                         C0961853    015001156141585339        000000000127282                                        PI000119019                                                                                                                                                                                                           
D00000019KADIRMAN                                                        AT 834763   015001156141608597        000000000204168                                        PI000119009                                                                                                                                                                                                           
D00000020ARIPIN                                                          AU254101    015001156141609094        000000000163199                                        PI000119086                                                                                                                                                                                                           
D00000021LALU MUHAMAD FAIZI                                              AU252737    015001156141609882        000000000152875                                        PI000119088                                                                                                                                                                                                           
D00000022SHERAJ ALI                                                      L 3121027   015001156141585701        000000000145108                                        PD000119006                                                                                                                                                                                                           
D00000023Motalap                                                         BK0630883   015001156141609443        000000000128869                                        PB000119047                                                                                                                                                                                                           
D00000024MUHAMAD KAWIRIAN                                                B 2099626   015001156141583934        000000000164806                                        PI000119037                                                                                                                                                                                                           
D00000025Bisarat Ali                                                     BP0677731   015001156141586393        000000000113014                                        PB000119019                                                                                                                                                                                                           
D00000026JAHIR                                                           N 7951174   015001156141585993        000000000121992                                        PD000119004                                                                                                                                                                                                           
D00000027MASNE                                                           AT 996094   015001156141609116        000000000130345                                        PI000119070                                                                                                                                                                                                           
D00000028SULAEMAN                                                        B 1954142   015001156141584647        000000000168979                                        PI000119047                                                                                                                                                                                                           
D00000029OGIK                                                            AT 997766   015001156141586029        000000000275127                                        PI000119067                                                                                                                                                                                                           
D00000030MAHRIP                                                          AT 200281   015001156141608573        000000000159652                                        PI000119027                                                                                                                                                                                                           
D00000031SAPARUDIN                                                       B 2920577   015001156141585873        000000000171261                                        PI000119002                                                                                                                                                                                                           
D00000032MOHAMAD ZULKARNAEN                                              AT 824997   015001156141585867        000000000207300                                        PI000119008                                                                                                                                                                                                           
D00000033MD FARUK HOSSAIN                                                BP0105465   015001156141609770        000000000137460                                        PB000119007                                                                                                                                                                                                           
D00000034PADLAN                                                          AT 200960   015001156141591504        000000000153576                                        PI000119028                                                                                                                                                                                                           
D00000035DANA DARMAWAN                                                   AT 451600   015001156141585837        000000000211716                                        PI000119034                                                                                                                                                                                                           
D00000036Saiful Islam                                                    BP0595118   015001156141609852        000000000137564                                        PB000119053                                                                                                                                                                                                           
D00000037SAPARI                                                          B 8210635   015001156141610624        000000000238640                                        PI000119079                                                                                                                                                                                                           
D00000038RUSNAN HADI                                                     AU313881    015001156141619014        000000000142551                                        PI000119113                                                                                                                                                                                                           
D00000039Mohammad Rasel Hossain                                          BR0255846   015001156141609875        000000000135477                                        PB000119044                                                                                                                                                                                                           
D00000040Homawn                                                          BM0919350   015001156141586415        000000000115541                                        PB000119022                                                                                                                                                                                                           
D00000041AHMAD                                                           AT 996910   015001156141584968        000000000290357                                        PI000119054                                                                                                                                                                                                           
D00000042SHOLEHUDIN ANSORY                                               AU226528    015001156141619044        000000000111852                                        PI000119111                                                                                                                                                                                                           
D00000043MUHAMMAD AGUS JAYADI                                            B 8211938   015001156141610617        000000000113198                                        PI000119078                                                                                                                                                                                                           
D00000044HADI                                                            AU255527    015001156141610133        000000000163268                                        PI000119092                                                                                                                                                                                                           
D00000045UMAR                                                            AU226600    015001156141618994        000000000112413                                        PI000119109                                                                                                                                                                                                           
D00000046SUKARDI                                                         AT 995660   015001156141586162        000000000135412                                        PI000119073                                                                                                                                                                                                           
D00000047RAMZAN                                                          L 7251245   015001156141586005        000000000143010                                        PD000119007                                                                                                                                                                                                           
D00000048SAHARUDIN                                                       AT 086172   015001156141584073        000000000166435                                        PI000119005                                                                                                                                                                                                           
D00000049Shafikul Islam                                                  BX0852172   015001156141586386        000000000110006                                        PB000119055                                                                                                                                                                                                           
D00000050MUHAMMAD ALI                                                    AU361406    015001156141619223        000000000124566                                        PI000119098                                                                                                                                                                                                           
D00000051NAUSHAD AHMAD                                                   J 4909770   015001156141585718        000000000137073                                        PD000119005                                                                                                                                                                                                           
D00000052MUNAHAR                                                         AT 767152   015001156141586616        000000000264231                                        PI000119031                                                                                                                                                                                                           
D00000053MD ABDUR RAHMAN SARKER                                          BQ0792568   015001156141609764        000000000137505                                        PB000119009                                                                                                                                                                                                           
D00000054Muhammad Jahangir                                               BH0316800   015001156141609869        000000000163201                                        PB000119048                                                                                                                                                                                                           
D00000055Md Jahid Hasan                                                  BR0087862   015001156141608909        000000000289165                                        PB000119031                                                                                                                                                                                                           
D00000056Mohammad Mahabur                                                BM0238682   015001156141585576        000000000142837                                        PB000119043                                                                                                                                                                                                           
D00000057MAHRIM                                                          AU 001869   015001156141586012        000000000163020                                        PI000119065                                                                                                                                                                                                           
D00000058BAHARUDIN                                                       AU253077    015001156141609734        000000000165524                                        PI000119089                                                                                                                                                                                                           
D00000059KADARIAH                                                        AT 423862   015001156141585530        000000000126849                                        PI000119016                                                                                                                                                                                                           
D00000060YUNUS                                                           B 3675264   015001156141586653        000000000211891                                        PI000119045                                                                                                                                                                                                           
D00000061Mohammad Shahin Pramanik                                        BM0238213   015001156141586192        000000000145396                                        PB000119046                                                                                                                                                                                                           
D00000062SAEPUDIN                                                        B6837975    015001156141583295        000000000353818                                        PI000119017                                                                                                                                                                                                           
D00000063Sirajul Islam                                                   BK0545964   015001156141610855        000000000128599                                        PB000119056                                                                                                                                                                                                           
D00000064JAOHARI                                                         AT 975710   015001156141586185        000000000153856                                        PI000119068                                                                                                                                                                                                           
D00000065HIRMAN                                                          AT 449475   015001156141583442        000000000170302                                        PI000119030                                                                                                                                                                                                           
D00000066Soriful Islam                                                   BW0854813   015001156141610848        000000000136068                                        PB000119058                                                                                                                                                                                                           
D00000067MARSIN                                                          AT 997744   015001156141583697        000000000160426                                        PI000119062                                                                                                                                                                                                           
D00000068HALIKUL FIRDAUS                                                 AT 658670   015001156141583673        000000000161922                                        PI000119044                                                                                                                                                                                                           
D00000069MOHAMAD AZMAT ALI                                               M 8596431   015001156141585963        000000000126398                                        PD000119008                                                                                                                                                                                                           
D00000070HAMZAH PANSURI                                                  AT 997310   015001156141584269        000000000130715                                        PI000119061                                                                                                                                                                                                           
D00000071SUYADI                                                          AU091179    015001156141586623        000000000160352                                        PI000119074                                                                                                                                                                                                           
D00000072Md Johurul Islam                                                BP0711511   015001156141585583        000000000142190                                        PB000119032                                                                                                                                                                                                           
D00000073AHMAD SYARIPUDIN                                                AU 002492   015001156141585979        000000000152450                                        PI000119063                                                                                                                                                                                                           
D00000074ZAENUL MUTTAQIN                                                 AT 658598   015001156141585308        000000000113562                                        PI000119046                                                                                                                                                                                                           
D00000075AZIM UDDIN                                                      BW0508252   015001156141584855        000000000290102                                        PB000119001                                                                                                                                                                                                           
D00000076Md Saddam Hossain                                               BP0709256   015001156141609190        000000000141888                                        PB000119035                                                                                                                                                                                                           
D00000077MD SOHEL                                                        BC0857430   015001156141608930        000000000124590                                        PB000119002                                                                                                                                                                                                           
D00000078HIRMAN                                                          B 8210634   015001156141610647        000000000253783                                        PI000119076                                                                                                                                                                                                           
D00000079Alem Miah                                                       BH0664462   015001156141609703        000000000137552                                        PB000119014                                                                                                                                                                                                           
D00000080MUHAMAD ILHAM                                                   AU 001872   015001156141586036        000000000161167                                        PI000119066                                                                                                                                                                                                           
D00000081SALIM                                                           BL0513604   015001156141609740        000000000124330                                        PB000119006                                                                                                                                                                                                           
D00000082ZAENAL                                                          AT 093744   015001156141585062        000000000193633                                        PI000119007                                                                                                                                                                                                           
D00000083SUMAIYAH                                                        AT 615277   015001156141584951        000000000240568                                        PI000119041                                                                                                                                                                                                           
D00000084HAERUN                                                          AU 091510   015001156141610149        000000000110006                                        PI000119075                                                                                                                                                                                                           
D00000085MD HUSHADUL ISLAM                                               BQ0772326   015001156141609480        000000000116460                                        PB000119008                                                                                                                                                                                                           
D00000086HULAIMI                                                         AU255919    015001156141609899        000000000163215                                        PI000119091                                                                                                                                                                                                           
D00000087ABDUL WAHID                                                     AU 233401   015001156141584825        000000000325010                                        PI000119020                                                                                                                                                                                                           
D00000088Mohammad Abul Basher                                            BR0083778   015001156141608916        000000000192609                                        PB000119039                                                                                                                                                                                                           
D00000089NURUDIN                                                         B 2920677   015001156141583903        000000000238737                                        PI000119024                                                                                                                                                                                                           
D00000090ADITYA RAMDALI                                                  AU 001870   015001156141585986        000000000151781                                        PI000119064                                                                                                                                                                                                           
D00000091Nur Muhammad                                                    BP0781402   015001156141609176        000000000144328                                        PB000119050                                                                                                                                                                                                           
D00000092SUL                                                             AT 767058   015001156141586646        000000000274538                                        PI000119011                                                                                                                                                                                                           
D00000093ABADI                                                           AT 907140   015001156141584156        000000000187800                                        PI000119039                                                                                                                                                                                                           
D00000094SATRIAWAN                                                       AT 424000   015001156141585553        000000000122694                                        PI000119014                                                                                                                                                                                                           
D00000095MUHAMAD MARJAN HAMDANI                                          C0974169    015001156141609109        000000000117854                                        PI000119036                                                                                                                                                                                                           
D00000096Mofiz Uddin Khan                                                BP0907465   015001156141610073        000000000123226                                        PB000119038                                                                                                                                                                                                           
D00000097Md Shohidul Shakh                                               BJ0256110   015001156141609710        000000000133274                                        PB000119036                                                                                                                                                                                                           
D00000098Muhammad Sabuz Ali                                              BP0757952   015001156141610631        000000000145473                                        PB000119049                                                                                                                                                                                                           
D00000099MUJIBURRAHMAN                                                   AU 155520   015001156141609501        000000000127966                                        PI000119083                                                                                                                                                                                                           
D00000100Jasim                                                           BP0894817   015001156141610119        000000000144336                                        PB000119024                                                                                                                                                                                                           
D00000101RUSDI                                                           AT 616271   015001156141583793        000000000188210                                        PI000119043                                                                                                                                                                                                           
D00000102NAVAB ALI                                                       N 7535830   015001156141586564        000000000142363                                        PD000119003                                                                                                                                                                                                           
D00000103TAUFIK SAPII                                                    AT 307863   015001156141584677        000000000120406                                        PI000119029                                                                                                                                                                                                           
D00000104Somun Mia                                                       BK0945016   015001156141586570        000000000143992                                        PB000119057                                                                                                                                                                                                           
D00000105Astarul Ali                                                     BE0669123   015001156141609698        000000000147499                                        PB000119016                                                                                                                                                                                                           
D00000106PAOZAN                                                          B 2099566   015001156141591490        000000000166200                                        PI000119038                                                                                                                                                                                                           
D00000107Mohammad Al Amin                                                BK0129739   015001156141610102        000000000156231                                        PB000119040                                                                                                                                                                                                           
D00000108IWAN                                                            B 8208871   015001156141609904        000000000217219                                        PI000119077                                                                                                                                                                                                           
D00000109SAHNUR                                                          B6838020    015001156141585732        000000000183751                                        PI000119003                                                                                                                                                                                                           
D00000110MUHAMAD HUSNI TAMRIN                                            AU226599    015001156141619038        000000000116731                                        PI000119106                                                                                                                                                                                                           
D00000111MD SHAMSUL HAQUE                                                BJ0423303   015001156141609467        000000000110006                                        PB000119005                                                                                                                                                                                                           
D00000112MD SOHAG BABU                                                   BF0494385   015001156141609757        000000000113133                                        PB000119003                                                                                                                                                                                                           
D00000113Rekatullah                                                      BR0151684   015001156141610080        000000000137460                                        PB000119051                                                                                                                                                                                                           
D00000114Hridoy Ali                                                      BQ0023129   015001156141586422        000000000119038                                        PB000119023                                                                                                                                                                                                           
D00000115Mohammad Isarot Ali                                             BR0151736   015001156141610097        000000000127944                                        PB000119042                                                                                                                                                                                                           
D00000116ALAMIN MIAH                                                     BH0621239   015001156141609473        000000000110006                                        PB000119004                                                                                                                                                                                                           
T000000000000116000000018580016000000000000000000000000000000000000000000000000000000000000000000000000000000000000000000000000000000000000000000000000000000000000000000000000000000                                                                                                                                                                                                       